:020000040800F2
:1000000000A0002095FE0008FDFE0008FDFE00088F
:10001000FDFE0008FDFE0008FDFE000800000000D7
:10002000000000000000000000000000FDFE0008CD
:10003000FDFE000800000000FDFE0008DD4E000887
:10004000FDFE0008FDFE0008FDFE0008FDFE0008A4
:10005000FDFE0008FDFE0008FDFE0008FDFE000894
:10006000FDFE0008ED4E0008FDFE0008FDFE000844
:10007000FDFE0008FDFE0008198A0008FDFE0008CC
:10008000FDFE0008FDFE0008FDFE0008FDFE000864
:10009000FDFE0008FDFE0008FDFE0008FDFE000854
:1000A000F198000845990008E198000807890008C0
:1000B000359900082599000815990008FDFE0008EB
:1000C000FDFE0008FDFE0008FDFE0008FDFE000824
:1000D000FDFE0008118A0008098A0008FDFE0008DC
:1000E000F14E0008FDFE0008FDFE0008FDFE0008C0
:1000F00011990008FDFE000801990008FDFE0008A6
:10010000000000000000000000000000FDFE0008EC
:10011000FDFE0008FDFE0008FDFE0008FDFE0008D3
:10012000FDFE0008FDFE0008FDFE0008FDFE0008C3
:10013000FDFE0008FDFE00080000000000000000B9
:10014000FDFE0008FDFE0008FDFE000800000000A6
:10015000000000000000000000000000000000009F
:100160000000000000000000FDFE0008FDFE000889
:10017000FDFE00080000000000000000000000007C
:0801800000000000FDFE000874
:1001C0002DE9F04FB5B008F013FF18B909F072F837
:1001D0000BF05AFABF4DC04C08F030FF2B7843F0BB
:1001E00001032B70BD4B4FF47002C3F8882000232D
:1001F000089309930A93236843F4803323602368A8
:1002000003F400330993089B01330893099B1BB93E
:10021000089BB3F5A04FF2D1236813F4003318BF45
:1002200001230993099B012B40F0798202230A9351
:10023000AB4B12221A606368636063686360636833
:1002400043F480636360636823F47C1363606368D2
:1002500043F4E8136360236843F0807323602368EA
:100260009901FCD5636823F003036360636843F07E
:1002700002036360636803F00C03082BFAD10A9B46
:10028000964F6B60974BFB60636A636ADFF89C82F2
:10029000DFF89CB2DFF89CA243F08073636263696D
:1002A00043F4FC0334AE636103238DF8823041F6DE
:1002B000FF7326F8503D4FF09040314603F0F2FBBB
:1002C0004FF6FF7331468848ADF8803003F0EAFB03
:1002D0003146404603F0E6FB3146844803F0E2FB3A
:1002E0003146834803F0DEFB3146824803F0DAFBF7
:1002F000304607F059FE209B7F4AB3FBF2F37F4A5A
:10030000DFF834E213607E4B7E4A4FF0000CC3F8F6
:1003100000C0C3F804C07C4B5A60F02287F8232049
:100320000722C3F808C01A60DBF80830CAF80030AA
:10033000BEE80F0037460FC7BEE80F000FC79EE8A4
:100340000F0087E80F00636943F40023636163696A
:1003500043F400236361636943F4002363616369C9
:1003600043F4003363614FF0904310221A8520223A
:100370001A8540221A854FF40043C8F818304FF40C
:100380008043C8F818304FF40053C8F81830674657
:10039000CDF80CA0391DF0593144083703F082FB29
:1003A000302FF7D1039B594AD3F80090584BDFF810
:1003B0008C811A60574B04221A7000213A4640463D
:1003C00011F0FCFA0127002188F8001088F81810B5
:1003D00088F8241088F80C7014221BA811F0EEFA8B
:1003E00019F4802F08BF4C4BDFF8FC8008BF1F704A
:1003F0002B784A4FDFF8489143F004032B7003F049
:1004000091FC474B1F60636943F480236361E36998
:1004100043F40013E361236B23F010032363236B86
:1004200043F010032363D8F8243023F00F03C8F8F7
:100430002430D8F8243043F00403C8F82430D8F826
:10044000243023F0F003C8F82430D8F8243043F0E7
:100450004003C8F8243002234FF0000A4FF48072A2
:100460008DF88430049331464FF0030340468DF8F5
:10047000853020928DF886A08DF887A00AF0AAFF1B
:100480004FF400723146404620920AF0A3FF3A68CA
:10049000039B22F001023A603968224A0A403A601E
:1004A000214A3A613A6842F001023A60C7F808A06E
:1004B000C7F80CA0C7F808A0BA6842F40042BA60B6
:1004C0003A683A607A6822F0784222F400427A6010
:1004D0003A6837E0A80700200010024000ED00E075
:1004E000002002400005FA0500040048000C004806
:1004F000001000480014004840420F00700E002019
:10050000140E00203F19010010E000E07E100020D2
:100510000C0E0020680A00208407002000540040D0
:10052000041F0020FFE0CF007A25E000000800480B
:10053000E80E002074140020101C01086C0A002032
:100540007816002042F001023A601F6810225146DE
:10055000484611F033FA049B8DF861304FF6FF7274
:100560004FF0030307F0020717928DF862A08DF891
:1005700063A08DF8603087B134A9012741F8747DFC
:1005800040460AF027FF0C2389F80030072389F83A
:1005900001A089F8033089F802704FF4D87007F091
:1005A000F3FC63695F4843F0805343F002036361E7
:1005B00007F0EAFC636943F0005343F00203636110
:1005C000594C20460AF031FE30460AF003FE4FF443
:1005D0008072564B26924FF4806220932792544BA0
:1005E0002193202200232046289231464FF40052C6
:1005F00022932493259329922A93ADF88C700AF0C4
:10060000F6FD236843F0010323604A4CA36823F0FE
:100610004053A360A36843F08053A3600A2004F012
:10062000EFFBA36823F08043A360A368A360A368E3
:1006300043F00043A360A368002BFCDBA3683E4AA1
:10064000DFF8F08023F04053A360A36843F0005329
:10065000A3609168394B0B4043F468339360E268C0
:10066000374B134043F40053E360236B013F23F007
:100670000F031F4327630122002409EB0403997829
:1006800041B1571CFFB2DB7819F8041040460AF05C
:1006900045FE3A460434102CEFD1264B9A6842F0BE
:1006A00001029A601A68D207FCD5DA6822F00202C9
:1006B000DA60DA6842F00202DA60DA6842F00102D7
:1006C000DA609A6842F004029A60BBF9E830002BC5
:1006D0003ED007EE903ADFED1B6ABBF9EA301A4ACA
:1006E000F8EEE77A07EE103A67EEA67ABBF9EC303F
:1006F000CDED207A07EE903AB8EEC77AF8EEE77AB9
:10070000002127EE267A67EEA67A117030460F494F
:100710008DED217ACDED227A0AF014FF20E001233D
:100720000A93ACE500360010580402404004005023
:10073000881600200004005000070050E010FCFF65
:1007400007C0FFFD35FA8E3CA000002050160020A7
:10075000BBF9EA20002ABCD1BBF9EC20002AB8D1B1
:10076000B64FBBF8F030DFF814A3059300249BF8D4
:10077000F7303C60102221467C60BC60B048049396
:100780002C729BF8EF8011F019F9AE4BA5F80940D7
:100790002320CAF80040CAF80440CAF808401C6088
:1007A00004F02EFB0FAA0121752009F0A5FFD14608
:1007B000002845D0A44BCAF80430A44BCAF808302E
:1007C00043238AF8003013AA3B23012120468AF8EC
:1007D000013009F091FF9DF84C30002800F0C380F3
:1007E000EA2B40F0C080332321464FF006098AF8F7
:1007F00000307F202D238AF8013085F809900AF017
:1008000007F80A2004F0FCFA782103200AF000F827
:100810000A2004F0F5FA0121484609F0F9FF0A2000
:1008200004F0EEFA3F21072009F0F2FF142004F053
:10083000E7FA2146072009F0EBFF0A2004F0E0FA6E
:100840006A7A834B06930021042A197041F02280B2
:100850007B4B804A804C1A60804A5A60804ADA603A
:100860002268079142F0010020609A464FF001098A
:1008700040F2024040F2FD3E43460B2B28BF0023CE
:1008800009FA03F111EA000C41F00A8011EA0E0F97
:1008900001F00680734B83F800C0734B3B6042F05D
:1008A0000302724B7B60226023689B0701D53B6883
:1008B0009847DAF800300598DFF8C48198474FF080
:1008C000000AC146049F5346052F88F8003000F205
:1008D0009880012202FA07F313F0220140F093807E
:1008E00013F01D0F00F08F8033460C208DF8801020
:1008F00009F088FE002800F086809DF88030482BA3
:1009000040F081805A4B5B4A1A605B4A5A6006236A
:1009100088F80030236843F0080323609BF8E43034
:100920000BB1069A13709BF8E5300BB14D4A13706A
:100930009BF8E6300BB189F800309BF8F820052AC7
:1009400067D9454A136843F0040313606B68012BB1
:1009500002BF2B7A43F040032B722C7A002C00F05C
:100960009180204638E003F07E038DF84C3038B19A
:10097000682B05D101236B721D2389F800305FE7D6
:100980009DF83C3003F07E03682B8DF83C3033D16A
:10099000022306216B723246D9F804300846984784
:1009A0009DF885309DF883209B00520002F00202E2
:1009B00003F0040313439DF8812002F00102134366
:1009C000DAB25BB1012A02D10023AB7238E7022A06
:1009D00001D10123F9E7022004F021FAD9F804300B
:1009E00017AA01210C2098479DF85C3013F00F03E3
:1009F000F1D0042BEDD1E7E7702B04BF04236B7219
:100A00001EE7002760E70023012F04933FF65AAF4B
:100A100084E70123934013F0360F06D113F0090F3A
:100A200008D005F0C1FC00288BD12B7A43F02003BD
:100A30002B728BE7012AF8D083E700BF5C0500200A
:100A40003C1E0020FC1E0020F9A6000811A800088A
:100A50000805002049A50008040A00207DA400081C
:100A600090C1793D68050020F1A50008C1A40008E7
:100A7000EC140020D937000815370008EC1E0020C0
:100A8000F41400202B7843F002032B70A74D4FF491
:100A900080432B854FF40043AB611026013E15D0F7
:100AA000AB8A9BB283F48043AB82AB8A9BB283F464
:100AB0000043AB82AB8A9BB283F40053AB82192014
:100AC00004F09EF9192004F09BF9E7E74FF4004386
:100AD000AB614FF48043AB61954E4FF40053AB6173
:100AE0003268100705D5934B1B689847924B01223B
:100AF0001A70924BDFED926A1B68924D1A7B924BF3
:100B00001A80924B1B8807EE103AB8EEC77A904BCA
:100B1000C6EE877A1B22FF2128469FED8E7A67EE6C
:100B2000877AC3ED007A10F049FF00222A703268FC
:100B3000894B012112F0020F1970284604D0697008
:100B4000032119700221A970510704D519784D1C91
:100B50001D700325455412F00A0F40F0AC86039A2D
:100B60001568AA0604D51A78511C197007218154FA
:100B70009BF80520082A01D00E2A04D11A78511CAE
:100B800019700B2181541A786F0702F101014FF09F
:100B90000C068654C9B248BF0232197042BF1A709F
:100BA000102242541A781226511CC9B286546E057E
:100BB000197004D59BF8B861002E40F0A186A905F4
:100BC00004D51A78511C197015218154EA0504D5F1
:100BD0001A78511C19701A238354982200215F48F7
:100BE0005E4DDFF8A4A110F0E9FE012004F01AF830
:100BF0004C2758B3012C29DC07FB04F905EB090845
:100C000098F84A6016B10134E4B2F2E7037990F93A
:100C1000000001960AEB8303032200921B6B32460D
:100C2000012103F0A0FF834660B104FB07504C2272
:100C3000314610F0C3FE01231C4445F809B088F882
:100C40004A30E4B2012003F0CBFFD2E7444B2A68DC
:100C50001A60444B444E454A1E6000231380937033
:100C6000434A444F13605360434ADFF820811468BD
:100C7000424ADFF81CC11660414AF0891370A6F59C
:100C80009B76B6F84621643204F17D010FFA80FEAE
:100C900012B2A3F10805EDB2022DD8F8005098BFAA
:100CA00027F8132005F5167588BF27F813E04CF8D0
:100CB00023500133122BECD1324B03931D6815F4F2
:100CC000805F08BFB6F94AE1A7F806E0CD348C4250
:100CD0001CD00B7883B98A78CB789A420CDA6AB147
:100CE000013A02EB820202EB820202F561734A785A
:100CF00004329BB227F812300431E8E7013303EBEA
:100D0000830303EB830303F56173F0E72B074ED5F1
:100D100096F83E21062A44D8DFE812F03C009B00FA
:100D20009E00C900E400FF00FF0000BF000800486B
:100D3000040A0020EC140020101500209C1C002048
:100D40000AE81C41090A0020AC050020AE00002082
:100D5000981F00200000C842080A0020E405002077
:100D60001C0E0020A00900201E100020481C00209E
:100D70006C1C002078140020041C00200C1C002097
:100D80002309002074140020101C0108D01C00202E
:100D9000B809002045F2F052A14B1A8005F0C4FAC0
:100DA00028B908200AF060FC9E4B9F4A1A60039BFA
:100DB0001A689E4B12F4804F04D012211970994981
:100DC0009B48086042F20100024202F4005140F0E8
:100DD0009D851A78043A00245A7032209F238DF89A
:100DE0005C308DF85D408DF85E408DF85F4004F01A
:100DF00007F88DF881408F4C4FF4805820AD0422C5
:100E0000A4F8288017A9284605F032FAC4F81880FB
:100E10009DF882209DF88130120242EA03429DF83B
:100E200083301A43844B9A42844B00F0B98000F31C
:100E3000B08083498A4200F0BA8001F51A4102313C
:100E40008A4200F0E48000221A805A809A60DA60B8
:100E5000BFE042F6F8229FE7714B42F6F8221A8073
:100E6000784A0A23000190FBF3F00023A0F5B0605C
:100E700042F823000133122BFAD16A4A72491160F9
:100E80006A4A4020137003F0CDFE002889D0012368
:100E90004FF0070890F900006C4A8DE808016C4B90
:100EA000402103F060FE003018BF012078E75C4B62
:100EB00042F6F8221A805B4B664A1A605B4B10229E
:100EC0001A70402003F0AEFE00283FF46AAF012301
:100ED0004FF0000C90F900005F4A8DE808104FF4C5
:100EE000E133DDE74E4B42F6F8221A804D4B5B4A68
:100EF0001A604E4B08221A70402003F093FE00281F
:100F00003FF44FAF01234FF0000E90F90000544A18
:100F10008DE808404FF4E133C2E7414B514D524C4C
:100F20005248DFF86481DFF864C1DFF864E142F61B
:100F3000F82119803D4B0C211970062A4FF000034F
:100F40002B70237003701BD01B2388F800300523FF
:100F50008CF800108EF800304FF4E134314B444AE5
:100F60001A60402003F05EFE00283FF41AAF012310
:100F7000002590F900003F4A8DE8280023468FE7BE
:100F8000212388F800308CF800108EF800203A4CAD
:100F9000E4E73A498A423AD001318A427FF453AFBA
:100FA0004FF480721A805A804FF4804106E020226C
:100FB0001A804FF480725A804FF40051304A1185E4
:100FC0009A88198812029A604A43DA602D4A0121F0
:100FD0001170DB68002B63D04FEAD3284FF0000973
:100FE000C14557DA09EB0804641010222946E002D3
:100FF00002F02CFD0F284DDD002355F8232001328F
:1010000040F098840133042BF7D1A046E8E7802212
:101010001A804FF480725A804FF40041CEE700BF2F
:101020007E060020640000200D3F0008E40E002032
:10103000E53E00080004004818BA20002400002003
:1010400015202000640C0020B13E00084540000837
:10105000A08601009D3E0008A13F0008853E0008D3
:10106000593F0008540D00200516002004160020EA
:10107000217B0008357B000890D003001740EF006B
:1010800000080048300B002027160020530D0020D8
:101090002816002003F0A4F81F4B4FEAC8221A605C
:1010A00003F092FE1D4BDFF88CA018607379DFF817
:1010B0008080052B02BF1A4B4FF4C8721A8008F0CB
:1010C00059FF184B18494FF47A721A80174A0023B7
:1010D0000B6013608B461C469146DBED007AF5EE03
:1010E000407AF1EE10FA27D12323049303F06CFE2B
:1010F00008F07CFB0A2003F083FE049B013BF4D143
:1011000008F046FBDAF80030CBF80030D8F80030B1
:10111000C9F80030E1E700BFE00D0020B005002075
:10112000080E0020B0090020741E0020701E002050
:10113000C81C0020CC1C0020CBF80040C9F800409F
:10114000DFF8B0A3D14C4FF00F080523049303F050
:101150003BFE08F04BFB0A2003F052FE049B013BD0
:10116000F4D108F015FBDBED007A9AED007AD9EDA9
:10117000006A37EE277AD4ED007A8BED007A77EEAD
:10118000A67AB8F10108C9ED007ADED1F2EE0E6A56
:10119000BF4A87EE266A137843F008031370BD4AEE
:1011A000137823F002031370039B1B6887EEA67A63
:1011B00040F602021A428BED006A89ED007A0BD0EC
:1011C000B54BB64A1A60B64B03221A70B54BA3F85A
:1011D0000080B54BA3F80080039AB368B34C13604A
:1011E000B34B01221A702378A14663F07F0309F8FC
:1011F0000C3BB04B4FF080421A60AF4BAF4A1A60C5
:10120000AF4BB04A1A604FF496637B81AE4FAF4B41
:10121000AF4A1A6097E80F000DF12C0E8EE80F0010
:1012200007F110030FCB0DF13C0C8CE80F0007F118
:1012300020030FCB0DF14C0B8BE80F0007F13003AF
:101240000FCB0DF15C0A40378AE80F0097E80F00DA
:1012500085E80F009BE80F0089E80F009AE80F006F
:1012600004F11C0787E80F009CE80F0004F12C072D
:1012700087E80F009EE80F0004F13C0787E80F00A5
:1012800095E80F0004F14C0787E80F00914F4FF4E9
:10129000967003F0B5FD00214FF48C728E4810F06B
:1012A0008DFBFB6943F00703FB61BB6943F4A52396
:1012B000BB617B6943F4C0237B6104F1100104F13D
:1012C000700ECDF810904FF00F0C1031714540F0BA
:1012D0003F8173790E2B40F0548101238DF87630D5
:1012E0007E4B1A68B8F1040F00F0548108F1010335
:1012F00002EBC30111F9061C022940F049814FEAB3
:10130000C80808F10203D31805D09044B8F8043097
:10131000003318BF01238DF87130039B1A68C2F3A4
:1013200040038DF87230C2F380138DF87430C2F32D
:1013300040338DF86C30C2F3C0338DF86F3012F447
:10134000006304D096F83231991E4B424B418DF820
:101350007030C2F300438DF87530C2F3C0038DF8CE
:101360006E30C2F3804312F4805F8DF87330B6F8AC
:10137000E030B6F8D4E0ADF87AE002F0010002F017
:1013800008011CBFB6F8DC20ADF87A20B3F5FA7F6F
:10139000ADF87830C4BF0023ADF87A3096F88231CA
:1013A00084F85C300023A4F85D309DF876308DF829
:1013B0006D00002B14BF0222002200B901B10132DE
:1013C000474B454E03EB8203D3F8A030A3F102084C
:1013D00003F1080B38F8023F4FF6FF72934240F0DA
:1013E000DB80404BDFF810C1DFF810E104221A70F7
:1013F000002404EB0E030FCB04EB0C061034402C3E
:1014000086E80F00F5D1039B37481A68374B1E68F2
:10141000374B02F480521C680023002A00F0378208
:10142000B4F9041020F8131001330C2BF5D1022469
:1014300001268DF882608DF883407B69DFF8C080DB
:101440004FF0100943F48023ADF8809029467B616A
:10145000404602F027FBA8F828908DF882608DF8AE
:1014600083407B694FF090494FF0800A43F400338A
:10147000ADF880A029467B614FF0904002F012FB4E
:10148000C9F818A08DF882603CE000BFC81C00209D
:10149000F5140020E80D0020741600201010002024
:1014A000C4050020C6050020C8050020A8070020AC
:1014B00084070020A41F0020A01F0020ABAAAA3F81
:1014C0009C1F002026B4973E601C01080C000020E1
:1014D000A086010000100240E01C00200C0E00203D
:1014E000101C0108760E0020EE0D0020801C00204C
:1014F0007C1C0020CC1C0020C4060020C01C01085D
:10150000000400488DF883407B69ADF8804043F4C7
:1015100080237B612946404602F0C4FAA8F828409F
:101520008DF882608DF883407B694FF4004843F466
:101530000033ADF8808029467B61484602F0B2FA5C
:10154000C9F818801E2003F05BFC35B0BDE8F08FB1
:1015500011F8063C11F8050C4FEAD30903F0070215
:1015600051F8103C03EB89039200D3F8209090408F
:101570000CFA02F229EA02021A621A6A104318628D
:10158000A3E603F0EF03082B3FF4A7AE0023A5E684
:101590009846A7E60023BEE69DF872205FFA83F91D
:1015A0001B0A4AB104EB0912CA481169814203D1EE
:1015B000928A012A00F06181022B00F05E81049A78
:1015C000012B02EB091040F02E819DF86D30002BAD
:1015D00000F053814FEA0919BF4BE06604EB090A9A
:1015E0000022FF211A705A609A60DA601A6483F848
:1015F000441083F8451083F8462083F847209AF872
:10160000193084F860208DF88230BAF81420DAF8A6
:101610001000ADF88020022329468DF8833002F0B7
:1016200041FA94F85C209AF81630DAF80C00012A96
:101630000CBF03220022002B40F09C80036A23F0A1
:10164000010303628369016A23F0F30343F001039A
:1016500021F00A0143EA021341F0010183610162B2
:10166000836923F00C0383618369836104EB090AB6
:101670000021012207F04EF9DAF80C2013889BB202
:1016800043F0010313809AF817308DF88030002260
:10169000012328468DF881308DF8822006928DF83E
:1016A0008330059304F02EFD9AF81710059B069AD7
:1016B0001B290BD1192128468DF880108DF8813017
:1016C0008DF882208DF8833004F01CFDA144834BFB
:1016D0002367D9F80CA0824B63670023A3675046A9
:1016E00007F066F9062800F3C88099F816207D49AE
:1016F0000A23434303EB920346F8231004330431D7
:1017000046F8231091080222DAF80C308A4092B28F
:101710001A4303B203EB8303DB00CAF80C2003F186
:1017200020023244EFF3128E502181F312881033DD
:1017300033440421D3F800C0BCF1000F03D0C2F839
:1017400000C01A680432013903F10403F2D11160B8
:101750005FFA8EFE8EF31188282303FB0060036A74
:10176000002B40F0EC80DAF80C3023F001031B046E
:101770001B0CE8E0042B19D1036A23F010031B04AF
:101780001B0C03628369016A21F0A00123F47343F7
:10179000090443F48073090C43EA023341F0100159
:1017A00083610162836923F440635CE7082B036A69
:1017B0001ED123F480731B041B0C0362C369016AEE
:1017C0009BB223F0F30343F001034FF2FF5E43EAC1
:1017D000021301EA0E0EC3614EF480730362C36903
:1017E00023F00C031B041B0CC361C369C3613DE7F9
:1017F00023F480531B041B0C0362C369016A23F4A6
:1018000040731B0521F400511B0D490443F4807300
:10181000490C43EA023341F48051C3610162C36958
:1018200023F44063DEE7032B27D19DF8733094F84F
:101830005EA0DFF8C8904BB100234FF6FF7208217D
:1018400002F05AF9284B49F82A0010E0BDF8782038
:10185000BDF87A30B2F5FA7F13DD2449B1FBF2F21C
:10186000242192B202F048F9214B49F82A00C360C2
:1018700094F85E30013384F85E30C3457FF4AAAD3E
:10188000AFE51C49B1FBF2F2012192B2D8E7B6F9FB
:101890000410C7E52B7A43F002032B72FFF74DB813
:1018A000012B4FF000083EF6E7AF134B9DF81C20CC
:1018B0001A70FEF7F9BF1A7804218154511CC9B27D
:1018C00005254554D11C0232D2B21970062181542B
:1018D000FFF745B9000400489C0A0020F5350008D0
:1018E000CD36000818080020DD360008005125021A
:1018F000F136000840420F0068050020000B002070
:1019000002321A7013224254FFF759B90F4844F6B5
:101910002064048021B1082119700D490D48086028
:10192000D0077FF556AA0C221A70094A0A4911609D
:10193000FFF74FBA04F101094446FFF766BBDAF836
:101940000C3043F00103CAF80C3096E77E06002005
:1019500064000020013F0008F53E0008A9490A681C
:101960002DE9F04F02F59C43A74C20332360A74B91
:101970008BB01D780591002D3AD1A54FDFF8A082DC
:10198000DFF8CCA297F80090E9B249450E4680F204
:10199000A4800729D8BFD8F800303846D8BF595C92
:1019A000DAF800309847032E1DDCD8F8003006F135
:1019B0000F0B03EB8B0133F82B204B8898B1811A66
:1019C0004FF47A709B1A484390FBF3F040F2EE23F9
:1019D00000F57A709842B8BF184640F6CA0398429C
:1019E000A8BF184680B204EB46060135B080C9E7AF
:1019F000884909688A4201D9013D1D70864B0093D0
:101A00001A6812F4805F05D0844B1B68DD0701D48F
:101A100009F028FF059B1968814B1A68937A002BFF
:101A200000F03481013B7F48127B30F913301AB14A
:101A3000C3F53B6308331BB2A3F57A73B3F57A7F22
:101A4000A8BF4FF47A7323EAE37307EE903ADFED11
:101A5000766AF8EEE77A87EEA67A744ADFED747A52
:101A600067EE277AFCEEE77A17EE903A1380009B38
:101A7000DFF8E0911B6813F4807F00F054816D4B18
:101A80006D4D994203D9AB78002B00F04F87AB78AE
:101A9000002B00F04881614F95F821603B6899F870
:101AA00000B00297012E03F08063DFF894A1634F2A
:101AB00001930BF0040B14BF4FF003084FF0000824
:101AC00095F82010052900F22881DFE811F01B01AC
:101AD00093019901BC01D401F1014F4B1A68584B95
:101AE000029342F20101186800900A40039206D066
:101AF00094F8293084F82830524B5A781A7094F8A8
:101B000028601EB14F4B1E7886F001060F2384F823
:101B10002A30434B94F82BA01B6801930323BAFB94
:101B2000F3F303EB4303AAEB0303DBB25B00049381
:101B3000009B454FDFF8ECB003F51673002507F165
:101B4000BC02069307F172084D4542DA690086B17E
:101B500037F91500019B9B8A80B29842C0F2CE866D
:101B6000019BDB8A984200F3C986069B42F8253028
:101B700003E03046EEE73BF80100039B1BB92BF86E
:101B800015000135E0E7314B062101FB053E049BC2
:101B90002EF8030094F8743033B9BAF1020FEEDD79
:101BA0004FF0010384F874304FF0000128F815104D
:101BB0006B0000203EF8101033F808C0013061447B
:101BC000032823F80810F5D10BB293FBF0F080B294
:101BD000D5E794F82A300F2B174B3DD10F4A1268E6
:101BE000560139D4029AD96812689A60521AC82AE2
:101BF00002D9012283F8212094F82B30013384F894
:101C00002B30FBE6D8140020F80800205C0D0020E3
:101C1000E40E0020580D002074140020341600201B
:101C20000C1C00207814002000007A44600A002078
:101C300000C07F44404B4C00481C0020441C002046
:101C4000D01C002012000020FC08002024090020E5
:101C500064000020E80D0020B84AB94E01215170FF
:101C60001170029A99681268DA60521A59688A42A9
:101C700084BF002283F8212000254D45BCDAE8B25C
:101C800002F056FA26F815000135F6E700980068CC
:101C900000047FF5ECAED4F89000081A0028FFF697
:101CA000E6AE01F59C402030C4F89000A548D27AF9
:101CB0004579A548A54E30F8150080B290FBF2F0AA
:101CC00094F89420013202F00F0284F89420224408
:101CD00082F8950018461A46855D01302A4410287E
:101CE00012B2F9D192FBF0F212B2002A03DB642A9D
:101CF0001346A8BF642307EE903ADFED956AF8EE2D
:101D0000E77AA8E6BBF1000F68D0012E05D00520C8
:101D100009F082FC8F4B02221A70B8F1000F02D03A
:101D2000404603F00FF88C4DB5F8DE0004F02CFCB3
:101D3000AA46064618B908F005F908F0F3F899F82C
:101D400000305B0708D5009B1B68DF0604D5834B7A
:101D50001B78DD0640F1F68500239AF88C819AF80D
:101D60008D11BAF84671BAF848E175481A4630F94B
:101D700012509B08BD42C4BF63F07F03DBB2013247
:101D80007545B8BF43F04003042AF0D194F8B12060
:101D90009A4240F0C18094F8B220F92A02DC013264
:101DA00084F8B2206E4F84F8B1303B786D4D002B33
:101DB00040F0E9802B68D80740F1DC80002E40F02D
:101DC000AD8099F80030DA0740F1DD805B0702D47E
:101DD000012384F8B33009F0F9FCD4E0019B4FF4FF
:101DE000806023B109F032FC00232B6195E709F0F4
:101DF0001DFCF9E7012E7FF463AE052100F09EBDC6
:101E0000012E04BF052185F82010BBF1000F0CD076
:101E1000D4F8A810B1F90E0049490880488088809C
:101E200038684088C8804FF00208DAF80000696915
:101E30008142C0F07F85BBF1000F00F07B85012E51
:101E40003FF43EAE69E799F8001041F0020189F8CD
:101E5000001009F007FDDAF80000E9690144A96102
:101E6000042185F820104FF4806009F0DFFB052085
:101E700009F0C6FB24E6012E14D1DAF80000A969A6
:101E80008142BFF44AAF364B197821B9029B1968D9
:101E9000CA073FF542AF99F8001021F0020189F816
:101EA0000010AAE7DAF80020EB691344AB6134E7CD
:101EB0003868DAF80030C188642000FB01312961FC
:101EC000002185F82010E970CDE79AF88E317EB9AF
:101ED000002B00F03F85244B1A68D4F8AC309B1AD5
:101EE000002B80F2378509F0BDFC84F8B06033E741
:101EF0003BB11D4A12684FF47A7101FB0323C4F809
:101F0000AC3094F8B030002B3FF426AF02F010FF55
:101F1000002384F8B0301FE7002241E7D4F8B43042
:101F20000A2B30DC114B1B885E072CD4104B1B781E
:101F30004BBB08F007F807F0F5FF4CE71200002054
:101F40007814002078160020881600208D090020C3
:101F50000000C842070E0020E80E0020F514002003
:101F60006800002034160020D01C0020C81F00206C
:101F7000060E002099F80030580704D594F8283050
:101F8000002B40F0ED8494F8B230994E142B2ED1F2
:101F90003B78C3B194F8B1305F2B06D199F800308B
:101FA00013F0040B6CD009F05DFCB8F1000F0AD0FF
:101FB00094F8B1307D2B06D199F8003013F0040B62
:101FC00064D009F04FFC99F8003013F004020ED1F0
:101FD00094F8B130572B5FD14FF47A73A4F8B8302E
:101FE000844B1B6813F0080301D1834A1380009BC4
:101FF0001B68580725D594F8BA309BB199F8003082
:1020000059070FD57D4BB3F90620BAF846319A42ED
:1020100008DD2B6813F0010301BF794A84F8BA3058
:10202000322111802B68DA0340F1A080754B1A78B9
:102030002AB9754A127812B9714A322111800122E7
:102040001A70366800232B6006F17F0706F1CF086F
:102050004FF0010BB84500F098803A787B789A42AF
:102060000CDA394617F8010C02F03EFE30B117F8D1
:10207000023C2A680BFA03F313432B600437E9E7A9
:102080000B2002F05FFE84F8B2B08EE70B2002F066
:1020900059FE84F8B2B096E700990968490740F103
:1020A00067845A2B40F06484574B197821B11A7019
:1020B000564B01221A709AE794F8BA3083F0010364
:1020C00084F8BA301BB10C2002F03CFE8FE70D20E3
:1020D000FAE75B2B00F051845E2B40F05C84032018
:1020E00000F04CBCB8F1000F02D07E2B00F06084F1
:1020F00094F8B130972B04D1454B4FF4C8721A8035
:1021000075E7A72B05D1434A137843F004031370F6
:102110006DE70022BB2B099217D10223ADF82630C0
:102120003368BDF82410B3F85C200A44A3F85C209F
:10213000BDF82610B3F85E200A44A3F85E2009F02B
:102140003BFB002384F8B23051E7B72B02D14FF6A6
:10215000FE73E3E7BE2B03D10223ADF82430DFE7A3
:10216000BD2B7FF444AF4FF6FE73F6E7264A137893
:10217000002B3FF466AF99F8003013F004037FF4AE
:1021800060AF13700122214B5AE7234F06F1CD05B2
:102190004FF00C0806F215164FF0010BB5423FD078
:1021A0006A78AB789A4221DA691C287802F09CFDA3
:1021B000E0B16979EB78194A95F804C008FB01FE93
:1021C000013B07EB0E0003EB4303134442689342C9
:1021D0000CD043600023836094F8BB3007F80EC036
:1021E0000BFA01F123EA010184F8BB100635D5E7AB
:1021F000041C0020040A0020500A0020781400204B
:102200002217002042170020431700204417002007
:10221000080E0020F5140020101C00202E1D0108BF
:10222000C84AC94994F82830D2F800800F68C74DD1
:10223000019300260292042E00F0C08269680029F2
:1022400062D00A78002A5FD0A868381A00280BDB11
:1022500007F5FA70A860012000FA06FE94F8BB00AA
:1022600020EA0E0084F8BB00019B002B4CD028789C
:102270004B780430C0B2002B40F06982B44B33F984
:1022800010E0BAF8440100F1C80CE64528DD91F8E9
:1022900002B094F8BB103141CB0735D4BBF1000F2D
:1022A000CCBF02200120039202F072FD039A511E5E
:1022B00013293BD8DFE811F02B0042004F006100EA
:1022C0007A008200E5005601BA01EB011A023A00D9
:1022D00061006D008200E5005601DC003C01B101A7
:1022E000C838864504DA91F802B0CBF1000BD0E78C
:1022F000012202FA06F194F8BB2022EA010284F8D6
:10230000BB2007F5FA72AA6001360C3593E798F8FE
:1023100000209344BBF1FA0FA8BF4FF0FA0B2BEA51
:10232000EB7B88F800B0404602F0C2FC94F8BB108A
:102330000122B2400A4384F8BB20E5E798F8012067
:102340009344BBF1640FA8BF4FF0640B2BEAEB7B07
:1023500088F801B0E7E798F803209344BBF1640FD5
:10236000A8BF4FF0640B2BEAEB7B7A4A88F803B0E6
:102370001168404602F05CFCD8E798F80510594413
:102380006429A8BF642121EAE1710D2A88F80510AB
:10239000CCD098F804209344BBF1640FA8BF4FF051
:1023A000640B2BEAEB7B88F804B0BFE798F80620B3
:1023B00093448BF3080B88F806B0B7E766490968C1
:1023C000087802283DD107EE90BAF8EEE76AB2EE3F
:1023D000047AC6EE877A91ED0A7A77EE877AF5EE7F
:1023E000C07AF1EE10FA29D49FED5C7AF4EE477AC8
:1023F000F1EE10FAC8BFF0EE477A0F2AC1ED0A7A63
:1024000094D007EE90BAF8EEE76AB2EE047AC6EE20
:10241000877A91ED097A77EE877AF5EEC07AF1EE58
:1024200010FA2BD49FED4D7AF4EE477AF1EE10FAC4
:10243000C8BFF0EE477AC1ED097A77E7DFED487A59
:10244000DBE788785844C828A8BFC82020EAE07095
:102450000F2A88703FF46AAF4A789344BBF1C80FE3
:10246000A8BF4FF0C80B2BEAEB7B81F801B05DE70A
:10247000394A11680A78022AC3D0EDE7DFED387ACD
:10248000D9E735490968087802283AD107EE90BAA9
:102490009FED327AF8EEE76AC6EE877AD1ED0D6AE3
:1024A00077EEA67AF5EEC07AF1EE10FA26D4F4EEC5
:1024B000477AF1EE10FAC8BFF0EE477A102AC1ED64
:1024C0000D7A3FF433AF07EE90BA9FED247AF8EE21
:1024D000E76AC6EE877AD1ED0C6A77EEA67AF5EE5A
:1024E000C07AF1EE10FA29D4F4EE477AF1EE10FA40
:1024F000C8BFF0EE477AC1ED0C7A17E7DFED187A26
:10250000DCE7487B5844C828A8BFC82020EAE07010
:10251000102A48733FF40AAF0A7B9344BBF1C80FFB
:10252000A8BF4FF0C80B2BEAEB7B81F80CB0FDE69F
:10253000094A11680A78022AC5D0EDE7DFED087A6A
:10254000D9E700BFF01B0020D01C0020101C002089
:10255000781400206C140020701400200000C84281
:1025600000000000C0490968087802283ED107EE43
:1025700090BA9FEDBE7AF8EEE76AC6EE877A91EDE3
:10258000107A77EE877AF5EEC07AF1EE10FA2AD457
:102590009FEDB77AF4EE477AF1EE10FAC8BFF0EE8D
:1025A000477A112AC1ED107A3FF4C0AE07EE90BA17
:1025B0009FEDAE7AF8EEE76AC6EE877A91ED0F7A74
:1025C00077EE877AF5EEC07AF1EE10FA2BD49FED14
:1025D000A87AF4EE477AF1EE10FAC8BFF0EE477A27
:1025E000C1ED0F7AA2E6DFEDA37ADAE7087E584460
:1025F000C828A8BFC82020EAE070112A08763FF456
:1026000095AECA7D9344BBF1C80FA8BF4FF0C80B6D
:102610002BEAEB7B81F817B088E6934A11680A78B9
:10262000022AC3D0EDE7DFED937AD9E78E4A11682D
:102630000A78022A1FD107EE90BAF8EEE76AB2EEE6
:10264000047AC6EE877A91ED0B7A77EE877AF5EE0B
:10265000C07AF1EE10FA0BD49FED857AF4EE477A4A
:10266000F1EE10FAC8BFF0EE477AC1ED0B7A5DE6E5
:10267000DFED807AF9E7CA789344BBF1C80FA8BFB1
:102680004FF0C80B2BEAEB7B81F803B04EE6764A9D
:1026900011680A78022A1DD107EE90BA9FED747A6C
:1026A000F8EEE76AC6EE877AD1ED0E6A77EEA67A83
:1026B000F5EEC07AF1EE10FA09D4F4EE477AF1EEB5
:1026C00010FAC8BFF0EE477AC1ED0E7A2EE6DFEDC4
:1026D000697AF9E78A7B9344BBF1C80FA8BF4FF032
:1026E000C80B2BEAEB7B81F80EB01FE65E4A11683F
:1026F0000A78022A1FD107EE90BA9FED5C7AF8EEB5
:10270000E76AC6EE877A91ED117A77EE877AF5EE71
:10271000C07AF1EE10FA0BD49FED557AF4EE477AB9
:10272000F1EE10FAC8BFF0EE477AC1ED117AFDE57F
:10273000DFED507AF9E74A7E9344BBF1C80FA8BF9A
:102740004FF0C80B2BEAEB7B81F819B0EEE5012BBB
:102750007FF4ECAD0C2A7FF4E9AD474B897833F96F
:1027600010B0464B40F633008345A8BF8346BBF507
:10277000617FB8BF4FF4617B4FF4966090FBF1F03E
:102780001978ABF5617B9BFBF0FB5FFA8BFB59453E
:102790003FF4CCADBBF1030FD4BF594602211970F1
:1027A00002FB01A2029B02F22A521A6006F0FCFB15
:1027B0000BF10100C0B202F0EBFAB7E5304D314E3B
:1027C0002B6813F0020F06D1009B1B68DF0506D5AE
:1027D0002D4BDB781BB13368980700F1ED800120A9
:1027E00008F024FF012704E007F0ACFB012008F00B
:1027F0002DFF2A68510732D58FB3012008F016FF4C
:10280000224B1B889A0704D407F09CFB022008F097
:102810001DFF99F800305B0708D41C4B1B8803F0A0
:1028200044031BB11A4B1A881A4B1A80336813F0F1
:102830000A0F40F0C9802B681A054FF480705AD5F2
:1028400008F004FF9AF80530082B02D00E2B40F058
:10285000C38040200BB0BDE8F04F08F0E7BE022077
:1028600008F0E4FED5E700BF7014002000007A44B1
:102870000000C8420000000078140020081C00205E
:1028800034160020040A0020481C0020CA1F002023
:10289000500A0020EA0D0020514B1B885F0706D428
:1028A000042008F0D3FE4F4B1A884F4B1A802B6838
:1028B0009E061CD54A4B1B88580602D4402008F0BF
:1028C000C5FE2B68590641BF464A1188474A5180C8
:1028D00013F0080308D094F8BC30002BABD1414B67
:1028E0001A88424B5A80012384F8BC30A3E7402069
:1028F00008F09CFEE5E708F099FEA3E752F82530C2
:10290000009883423FF637A9E8B2079201F010FC25
:10291000032D079A3FF731A994F82A100123AB4001
:1029200021EA030384F82A30FFF727B90123AB70AB
:10293000FFF7ADB842F21071E961032185F820106C
:10294000FFF7BEB82A4B1B78002B7FF4BEAA002EDF
:102950007FF4D7AA102002F0F5F90123FFF7D9BAC6
:1029600011B9002E7FF40FAB08F07CFFFFF70BBB13
:102970005D2B7FF4AEAB012000E00220C7B27B1ECE
:102980008AF8283508F080FE06F058FB384602F039
:10299000FFF9FFF72CBB562B01D108F00DFF3B7858
:1029A000002B3FF4A5AB94F8B1306F2B7FF49AABBA
:1029B00008F00CFFFFF71BBB094B1B8813F0010746
:1029C0003FF412AF002714E72B68DB063FF564AF36
:1029D000042008F02BFE6AE70BB0BDE8F08F00BFC3
:1029E000CA1F0020500A0020EA0D0020120000201B
:1029F000680000202DE9F04F2DED048B4928A1B08F
:102A000000F0F08300F20D81322800F06B856BD866
:102A1000222800F041842BD8032800F0598207D8DF
:102A2000012800F03782022800F0418200204AE2AB
:102A3000042800F054820528F8D11A2002F07EF80C
:102A4000A44D0024285D013402F047F80B2CF9D185
:102A5000A14D0024285D013402F03FF8082CF9D183
:102A600000240020013402F038F8072CF9D129E2C3
:102A7000282800F00F8513D8242800F00085262888
:102A8000D4D1964C062002F059F8B4F8E80002F0D0
:102A900058F8B4F8EA0002F054F8B4F8EC00D4E2C4
:102AA0002A2800F00A852C28C0D18C4C0C2002F07A
:102AB00045F894F83E0102F010F8B4F8480102F02D
:102AC00040F8B4F8440102F03CF8B4F8460102F0D2
:102AD00038F894F83F0102F000F8B4F84A0102F027
:102AE00030F8B4F84C01B0E23D2800F0708344D8CF
:102AF000382800F0CA8433D8342800F0F083362810
:102B000094D1774D754C95F86400C0EBC000C0B20D
:102B100002F014F804F12006683594F998010023B6
:102B20000C33EA1812F90C2C824240F0F084C0B247
:102B300001F0D3FFB4F89A0102F003F894F89C0175
:102B400001F0CBFF94F89D0101F0C7FF94F89F01BD
:102B500001F0C3FF94F89E0101F0BFFF00F0DABC62
:102B60003A2800F002833B287FF460AF012001F097
:102B7000E5FF5C4B1B68187896E1452800F0EC8473
:102B800026D8402800F0B58442287FF44FAF534C3C
:102B9000102001F0D3FF607901F09FFFA06801F0E1
:102BA000D9FF94F83E0101F098FFB4F8E80001F075
:102BB000C8FFB4F8EA0001F0C4FFB4F8EC0001F07B
:102BC000C0FFB4F82E0101F0BCFFB4F830013CE2C4
:102BD000462800F0A48447287FF428AF01F074FF52
:102BE0000546842001F0AAFF284601F0B3FF3E4BC2
:102BF000DC6805F18003A3428CBF641B802401F0D4
:102C0000EFFA22462846694600F020FF00240546D8
:102C1000AC4280F257811DF8040001F05EFF0134E0
:102C2000F6E7722800F0BE8300F2D880692800F031
:102C30007A823BD8652800F0628125D84B2800F0C5
:102C400042844D287FF4F2AE284D294C287800EBC1
:102C50004000C0B201F072FF00262B789E4204F1C2
:102C6000020480F02F8114F8020C01F036FF14F8F2
:102C7000010C00EB800000EB800000F2EE2080B23F
:102C800001F05FFF0136E8E7662800F0228268283D
:102C90007FF4CCAE102001F051FF164D0024285DCA
:102CA000013401F01AFF102CF9D10BE16E2800F06D
:102CB000618221D86C2800F049826D287FF4B6AE7D
:102CC000074C062001F03AFF206D01F043FFB4F8F5
:102CD0005400BAE1632001086F200108E80E0020CB
:102CE000040A0020041C002024000020E40E002020
:102CF00036100020320A00206F2800F079827028F8
:102D00007FF494AED24C212001F018FF23681B7889
:102D1000022B4FF0000540F0A0829FEDCE9ADFED30
:102D2000CE8AB2EE048A236803EB850393ED090A89
:102D300020EE080A0DF02CF980F30800C0B201F073
:102D4000CCFE236803EB850393ED0C0A20EE090A01
:102D50000DF01EF980F30800C0B201F0BEFE23683A
:102D600003EB850393ED0F0A20EE280A0DF010F90E
:102D700080F30800C0B2013501F0AFFE032DD2D1BF
:102D8000072D236840F05C8293ED120A20EE080ABA
:102D90000DF0FEF880F30800C0B201F09EFE23683B
:102DA00093ED130A20EE080A0DF0F2F880F3080004
:102DB000C0B201F092FE236893F8503000EE103A52
:102DC000B8EE400A0DF0E4F8FF28A8BFFF20C0B21B
:102DD000013501F082FE0B2DD2D173E07C2800F08A
:102DE000CF8335D8752800F04B8225D8732800F0A2
:102DF0001E8374287FF41AAE984F00264FF0010A04
:102E0000DFF890924FF0000B3B795B4540F38E82E8
:102E1000934B0C251BF80340002305FB03F202EB48
:102E2000090012F80920A24200F0B48301331C2BE0
:102E3000F3D10BF1010BE7E7772800F081827B28C3
:102E40007FF4F4AD022001F079FE864B1888FCE097
:102E5000DE2800F0908308D8A02800F00083DD2849
:102E60007FF4E4AD01F026FE2CE0FE2800F0EA82BB
:102E700000F2D980F0287FF4D9AD754C042001F020
:102E80005DFE2368B3F85E0001F05BFE2368B3F8D3
:102E90005C00DAE0032001F051FE002001F01DFE8D
:102EA000022001F01AFE002001F017FE0AE00520C2
:102EB00001F044FE6C4D0024285D013401F00DFE4C
:102EC000052CF9D1012021B0BDEC048BBDE8F08FB9
:102ED00001F034FE022001F000FE0020E1E70B20AB
:102EE00001F02CFE072001F02CFE604D0024285D2F
:102EF000013401F0F2FD072CF9D10020A5E00B20F0
:102F000001F01CFE5A4B554C188801F01AFE594B23
:102F10001A68594B9A420CBF584B594B188880B2CB
:102F200001F00FFE2068C0F3C003C0F380029B00D5
:102F300043EA4203C0F340021343C0F3401243EAA2
:102F4000C20300F01000184301F0FBFD4D4B267941
:102F50001A884D4B19684D4B1B7802F00100C3F3E2
:102F6000800343EA4003C2F3400043EA800302F0D7
:102F700008000343C2F3800043EA0013C2F3801049
:102F800043EA401301F04000034301F08000034393
:102F900001F480700343C2F3001043EA4023C2F3FC
:102FA000401043EA8023C2F3002043EAC02301F427
:102FB0008050034301F40050034301F48040034375
:102FC00001F40040034301F48030034301F4003076
:102FD000034301F48020034301F40020034301F480
:102FE00080100343C2F3402043EA405301F00071D4
:102FF000C2F380220B43002043EA82630534024679
:103000000125B24209D2115D05FA01F119421CBF36
:1030100005FA02F108430132F3E701F09BFD1C4B76
:1030200093F8280540E7124A0C4C118800232384AA
:103030000122114230D101339BB25200092B92B2CE
:10304000F7D1022001F07AFD208C01F07AFD39E7FA
:10305000041C00200000C84200007A44040A00203A
:10306000090A002036000020552001085B200108D5
:10307000C81F0020041F002000540040E81E00204C
:10308000EA1E0020CA1F002034160020E80D002090
:10309000E80E00209C1D0108013B072B05D8DFE846
:1030A00003F007090B0E1012141601232384C8E73E
:1030B0000223FBE74023F9E74FF48073F6E7802310
:1030C000F4E72023F2E71023F0E70823EEE70423D8
:1030D000ECE7122001F032FDA74BA84C1B88B3F59A
:1030E000806FD4BF01260826002504F1220737F996
:1030F000150090FBF6F0013580B201F022FD032DA2
:10310000F5D1208D01F01DFD608D01F01AFDA08D1F
:103110009B4C01F016FD208801F013FD608801F042
:1031200010FDA08891E7974D974E2878400000F059
:10313000FE0001F003FD00242B789C42BFF4C2AED8
:1031400036F8140001F0FDFC0134F5E78B4C062045
:1031500001F0F4FCB4F8460001F0F3FCB4F84800C8
:1031600001F0EFFCB4F84C006FE7042001F0E6FC3E
:10317000002081E1072001F0E1FC844B7F4C18889E
:10318000FF28A8BFFF20C0B201F0A7FCA06D4FF63A
:10319000FF75A842A8BF284620EAE07080B201F07F
:1031A000D0FCB4F85C0001F0CCFC794B93F83331DF
:1031B0004BB1236E0A205843A842A8BF284620EAF4
:1031C000E07080B241E7206E00F30F00F9E7704C29
:1031D000022001F0B3FC94F88E0101F07EFC94F81B
:1031E0008D0161E6022001F0A9FC694B98892CE76A
:1031F000684C0B2001F0A2FC2368187801F06DFCEC
:103200002368587801F069FC002523682B440135B8
:10321000187901F062FC032DF7D12368D87901F009
:103220005CFC2368987801F058FC2368D87801F09A
:1032300054FC2368588901F084FC2368187A33E62B
:103240002B44587801F049FC23682B44187B01F08B
:1032500044FC23682B44D87DBAE523682B44587876
:1032600001F03BFC23682B44187B01F036FC2368FB
:103270002B440135D87D01F030FC0B2DEDD121E63A
:103280002F2001F05BFC444C14F8010F00283FF4A0
:1032900019AE01F022FCF7E7502001F04FFCDFF8F7
:1032A00000813E4E00250C27D8F8004004EB850431
:1032B000013594F87D3007FB0363187A01F00DFCAB
:1032C00094F87E0001F009FC94F87F0001F005FC01
:1032D00094F8800001F001FC142DE5D1F2E54820BE
:1032E00001F02CFC2E4F002506263C6806FB054409
:1032F000013594F8D20001F0F0FB94F8CD0001F014
:10330000ECFB94F8CE0001F0E8FB94F8CF0001F05C
:10331000E4FB94F8D00001F0E0FB94F8D10001F058
:10332000DCFB0C2DE1D1CDE5464482E5BAF1000F7E
:103330003FF4C8ADF0B201F001FC4FF0000A5FE5C8
:103340000E4C164D207901F0F9FB0026671D4FF059
:103350000C0823799E42BFF4B5ADF05D002308FB55
:1033600003F25119525D824200F0278101331C2B78
:10337000F5D10136EDE700BFAE000020040A0020C1
:10338000E4140020E40E0020781400202017002010
:10339000E80E0020F01B0020691D01089C1D01089B
:1033A000041C0020874C162001F0C8FBB4F844012F
:1033B00001F0C7FBB4F8D00001F0C3FBB4F8D200B1
:1033C00001F0BFFBB4F8D40001F0BBFBB4F88601F8
:1033D00001F0B7FB002001F080FB002001F07DFB35
:1033E000002001F07AFB94F8330101F076FB94F8A9
:1033F000400101F072FB002001F06FFB724B1B6873
:10340000B3F95A000A2390FBF3F080B201F099FB64
:1034100094F8280101F061FB94F82C0101F05DFBA8
:1034200094F82B0101F059FB94F82D013CE508209C
:1034300001F084FB0124E0B2013401F04EFB092CC1
:10344000F9D13FE5082001F079FB002001F079FB7C
:10345000002001F076FB002001F073FB4DE50C200D
:1034600001F06CFB594B186801F074FB584B18685D
:1034700001F070FB574B186801F06CFB22E504204B
:1034800001F05CFB4F4B9868F6E7042001F056FB17
:103490004C4CBDE74B4C072001F050FBB4F82E011B
:1034A00001F04FFBB4F8300101F04BFB94F832010E
:1034B00001F013FBB4F83401C7E5012001F03EFB35
:1034C000404B5879F0E43F4C042001F037FB94F86E
:1034D000840101F002FB94F8850101F0FEFAB4F8D2
:1034E0008601B2E5012001F029FB364B93F840013B
:1034F000DAE4082001F022FB324D00246319013484
:1035000093F8360101F0E9FA082CF7D1DAE4302B10
:103510007FF406AB0834A6427FF4FFAAD2E40D2064
:103520002D4C01F00BFB00F05FFA01F0D6FA208879
:1035300001F010FBE06801F00DFB284B284A1878D9
:10354000284B1B789842AABFC31AC3F180030020FE
:103550000344106818448FE7132001F0EFFA224D5E
:103560000024285D013401F0B8FA0B2CF9D10020B9
:1035700001F0F0FAFCE501F0A7FA01F0A5FAA1E4E8
:10358000032001F0DBFA194B187801F0DAFA184B36
:10359000FFF7F1BA4568284608F092FA8046BAF17A
:1035A000000F7FF4C1AE2C46631B4345BFF641AC10
:1035B00014F8010B01F091FAF6E7087A01F08DFAA0
:1035C000D7E600BFE80E0020041C0020ACF7FF1F68
:1035D000B0F7FF1FB4F7FF1F240000205E0D00208E
:1035E000E00D00205D0D002063200108070E002083
:1035F00034000020324A136C90681944081A40F6CF
:103600008C23984270B513469160D06051603BD9CD
:10361000117892F94520914221D10A1F082A1ED81B
:1036200093F84620182A03DC013283F8462001E093
:1036300083F8441093F9442091421DD193F8470038
:10364000D0B1204C002004F13C05824209DC1E4828
:1036500000240B2A0BDC20F812400132F9E700228B
:10366000E3E754F8046F25F810600130EDE793F8B4
:103670006020013283F86020012283F84720002275
:1036800083F845101A7070BD92F84710B9B1A0F2D6
:10369000EF2440F2DA518C4208D811780B2905DC6E
:1036A0000B1D0131117042F8230070BD002283F818
:1036B0004720104699180432302A0861FAD170BDAB
:1036C0009C0A0020A80A0020E40A0020024A136C89
:1036D00001330B44136470479C0A0020034B03EB37
:1036E0008000436E1B681960704700BF9C0A002071
:1036F000074B03EB8000436EA1F57A701A681989B5
:103700004FF47A73414391FBF3F11160704700BFAE
:103710009C0A002013B5012204466B4602210C20AE
:1037200006F070FF10B9002002B010BD9DF8003007
:10373000DA07F8D56B46072203210C2006F062FF5A
:103740000028F0D09DF806309B07ECD19DF80120B1
:103750009DF800309DF8031043EA02231BB21D4A76
:1037600007EE903A92ED007AF8EEE77A0C2067EED9
:10377000877A92ED017AFDEEE77A17EE903A238090
:103780009DF8023043EA01231BB207EE903AF8EEAF
:10379000E77A9DF8051067EE877A92ED027AFDEEE2
:1037A000E77A012217EE903A63809DF8043043EAED
:1037B00001231BB207EE903AF8EEE77A0A2167EE92
:1037C000877AFDEEE77A17EE903AA38007F016F8B5
:1037D000AAE700BF1800002007B500220A210C202C
:1037E00007F00CF8142001F00BFB0F220A210C202B
:1037F00007F004F80A2001F003FB01AB03221021BB
:103800000C2006F0FFFE0A2001F0FAFA9DF90420D0
:103810009FED295ADFED295A294B06EE902AF8EE42
:10382000E66AF7EE007A76EEC56A9DF90520B0EEFD
:10383000677AA6EEA57A0A210C2006EE902AB3EE4E
:103840000E6AF8EEE66A27EE067A76EEC56A83ED32
:10385000007AB0EE677AA6EEA57A9DF9062027EEEB
:10386000067A83ED017A07EE102AB8EEC77A0022B5
:1038700037EE457AE7EE257A67EE867AC3ED027A6F
:1038800006F0BCFF0A2001F0BBFA0DF10303012290
:1038900002210C2006F0B6FE0DF1030301220921DE
:1038A0000C2006F0AFFE01220A210C2006F0A6FF34
:1038B000012003B05DF804FB000000430000803BE2
:1038C00018000020F0B5046D8668236823F001031A
:1038D00023608379054613F0020F407914BF4FF43B
:1038E0000052002213F0040F14BF4FF4806700272A
:1038F00010F0010F14BF042100218307206820F07D
:1039000001002060606820F4405042EA00026260DA
:10391000236823F4B05323F00C0348BF41F008019F
:103920003B430B432360A36895B023F44073A3602B
:10393000684604F039FB284B9C4239D10C9A236825
:103940001F0448BF5200B2FBF6F306FB1322B2EB92
:10395000560F226828BF0133160406D5C3F342026E
:1039600023F00F031B041B0C13439BB2A3816B7941
:10397000A87913F0020F0CBF00224FF4003200F0C0
:103980000101DC0748BF42F480322B6D01B3596856
:103990000A435A609A6801074CBF42F0080222F0BD
:1039A00008029A601A6842F001021A6015B0F0BD70
:1039B0000A4B9C4201D10D9AC1E7094B9C4201D1AF
:1039C0000E9ABCE7074B9C420CBF0F9A109AB6E7C1
:1039D000596821EA0202DCE7003801400044004057
:1039E00000480040004C004073B50F4C94F8940020
:1039F00098B105230D4D8DF800304FF4805600230B
:103A00008DF8013002222E85694601A802F030FCB3
:103A1000AE619DF8050000F0010084F8940080F08C
:103A2000010002B070BD00BF9C0A002000040048E5
:103A300070B5054C26680546FFF7D6FF18B9236810
:103A40009B1BAB42F8D970BDD01C00202DE9F3417F
:103A500003238DF80430030C8DF805308DF8070032
:103A6000030A06208846144600278DF80630FFF723
:103A7000DFFF98B10A4D04224FF480560DEB02018E
:103A80002E85384602F0F4FB22463946404602F0C5
:103A9000EFFBAE61204602B0BDE8F0810446F9E7D5
:103AA00000040048F7B506460D46002401272A8881
:103AB00007FA04F31A421AD0AA78009302F003031B
:103AC0008DF80430EB78022B03D0032B0CBF0323BB
:103AD00001238DF805306946C2F301133046C2F365
:103AE00081028DF806308DF8072007F073FC013451
:103AF000102CDCD103B0F0BD2DE9F743DFF81C92A8
:103B000099F895400746154600680A4698462946A2
:103B1000631C89F8953004F0FDFE3B89ADF8043054
:103B200001A9022378688DF806308DF80730FFF779
:103B3000B9FF97F80AE03A6809F1980606EB04160F
:103B40004946BEF10C0F36D8DFE80EF007353535A3
:103B50005735353582353535AC00136ADFF8C091FD
:103B600023F001031362136AD2F804C0906920F4B1
:103B7000803020F073004A4540F0700034D009F5E1
:103B800000694A4530D009F540694A452CD009F50D
:103B900080694A4528D009F580694A4524D043F018
:103BA0000303C2F804C09061C2F8348013629369C1
:103BB00043F0080393613B7B1BB1536C43F4004318
:103BC000536413889BB243F0010313802301BEF1B9
:103BD0000C0F00F28E80DFE80EF0878C8C8C958CB9
:103BE0008C8C998C8C8C9D0023F00E032CF4407CE3
:103BF00043F003034CF4807CD3E7136ADFF8209191
:103C000023F010031362136AD2F804C0906920F005
:103C1000807020F4E6404A4540F4E0400FD009F5BA
:103C200000694A450BD043F03003C2F804C09061EC
:103C3000C2F838801362936943F40063BAE723F053
:103C4000E0032CF4406C43F030034CF4806CECE760
:103C5000136ADFF8CC9023F480731362106AD2F8F1
:103C600004C0D3694A4523F0730343F0700310D0B6
:103C700009F500694A450CD040F44070C2F804C010
:103C8000D361C2F83C801062D36943F00803D3616A
:103C900091E720F460602CF4405C40F440704CF4F8
:103CA000805CEBE7136ADFF8789023F480531362AB
:103CB000106AD2F804C0D3694A4523F4E64343F4BA
:103CC000E04340F4405003D009F500694A4501D172
:103CD0004CF4804CC2F804C0D361C2F8408010623A
:103CE000D36943F40063D2E7C81802F13404C0F882
:103CF000984019443046A1F8A050C1F89C2003B068
:103D0000BDE8F083C81802F13804F0E7C81802F1E2
:103D10003C04ECE7C81802F14004E8E79C0A0020E4
:103D2000002C01402DE9F341494D4A4CEB6943F425
:103D30008043EB612B6943F480432B616B6943F44F
:103D400080236B61636A23F470036362636A43F4E4
:103D5000A0036362636A23F070636362636A43F083
:103D6000A0636362636A23F070436362636A43F033
:103D7000A0436362236A23F470032362236A43F43B
:103D8000A0032362636A23F470236362636A43F4CB
:103D9000A02363624FF4604300264FF003080093B2
:103DA0006946022320468DF804308DF806608DF8B0
:103DB000076020278DF8058007F00CFB012369467A
:103DC00020468DF804308DF806608DF80760009766
:103DD0004FF480568DF8058007F0FCFA69462046BE
:103DE000009607F0F7FA2B6943F480432B612B69A7
:103DF00023F480432B61184B9A8822F480521204DA
:103E0000120C9A809A8892B232439A801A8802F4ED
:103E1000415242F4437242EA08021A809A8822F41C
:103E200070621204120C42F4E0629A809A8B22F4BF
:103E300000621204120C9A8307221A821A8892B224
:103E400042F040021A80A761A66102B0BDE8F0818D
:103E500000100240000400480038004003788B4204
:103E60000AD9064B1A78064B53F8210002B14008D4
:103E700000F5777080B27047002070473A14002038
:103E8000F40B002007299BBF034B03EB81010020AB
:103E9000086B80B2704700BFF40B0020034B03EBAC
:103EA0004101B1F85000C008704700BFF40B00207A
:103EB0000A4BDFED0B7A03EB810191ED1C7AB8EE32
:103EC000477AF6EE046AE7EE267A82B0FCEEE77AED
:103ED000CDED017ABDF8040002B07047F40B00206C
:103EE00000005C44024B03EB4101B1F8B80070479D
:103EF000F40B0020014B33F811007047E40A002056
:103F0000014B33F811007047E40A0020002070478D
:103F100010B5044600F058FF0E4BD3F8DC20C3F870
:103F2000DC00821A41F288318A4284BF002283F881
:103F3000E02093F8E0200F2A03EB0201E4B214BF63
:103F40000132012281F8E14014BF83F8E02083F8B8
:103F5000F12010BDF40B002010B5044600F034FF32
:103F60000E4BD3F8F420C3F8F400821A41F28831E2
:103F70008A4284BF002283F8F82093F8F820142A9C
:103F800003EB020114BF0132012281F8F94014BF92
:103F900083F8F82083F80E2110BD00BFF40B002039
:103FA00010B5044600F010FF254BD3F81021C3F8DC
:103FB0001001821AB2F57A6F84BF002283F81421AF
:103FC00093F814214AB9A82C38D183F81521A3F805
:103FD0001621991881F8194106E0022A02D183F8C6
:103FE0001841F6E7242AF4D993F818110132023166
:103FF000D2B249008A4283F8142116DAB3F81601C6
:10400000E4B280EA0420082241F2210110F4004FBA
:1040100002F1FF324FEA400018BF484012F0FF02A1
:1040200080B2F3D1A3F8160110BD01318A4201BF5D
:10403000002283F81421012283F8152110BD00BF4E
:10404000F40B002010B5044600F0BEFE0F4BD3F871
:10405000402140F6AC51821A8A42C4BF002283F844
:10406000442193F84421991881F845411AB90F2C3D
:104070000BD1C3F840010132D2B2192A83F844218E
:104080000CBF0122002283F85E2110BDF40B00203A
:104090002DE9F041234D00210B462C4641F221062B
:1040A0004218AA5C83EA02230922013A07D013F4DA
:1040B000004F4FEA430318BF73409BB2F5E701314D
:1040C0001929EDD100F11901655C00F11A01615C5B
:1040D00001EB052189B2994222D11349134E91F87F
:1040E0005FE101384FF4AF67D5B2754502F10102C7
:1040F00013DA00EB420C5FFA8CFC14F80C800CF124
:10410000010C14F80C3003EB08239BB27B431B1308
:1041100003F5487326F81530E6E7012381F860318E
:10412000BDE8F08106160020F40B0020E815002001
:10413000104B1B6803EB4002117E29B102290DD000
:104140000D4B33F810007047022805D90328F7D12A
:104150000A4A1268D2040AD5D8897047507E00EB0B
:10416000800000EB800000F2EE2080B270474FF438
:10417000966070470C1C00207814002074140020F6
:1041800008B500F021FE074B022283F86821C3F82E
:104190006401054B1A68054B9A60012283F82120BF
:1041A00008BD00BFF40B0020D01C0020481C0020DC
:1041B00008B500F009FE084B022283F8682100F5DB
:1041C000B710064A00F55870C3F86401936803F20B
:1041D000DC53936008BD00BFF40B0020481C002096
:1041E0002DE9F04F524C94F8693194F86A219342CA
:1041F00089B000F09A8004F26B11C8189A420490BA
:1042000005916BDBD31A069300230793079B069F48
:10421000DFF828911F44002F00F08280D4F8EC31A1
:10422000DDB27A19B2F5807F424AD2688CBFC5F5FB
:1042300080753D46934273D202228DF80C201A0CF1
:104240004FF480588DF80D2006201A0A8DF80E20A4
:104250008DF80F30FFF7ECFBA9F82880062002F05C
:104260003BF8354AC9F8188001230026137003A9CA
:10427000A9F828800422304601F0FAFFDDF818A0E2
:10428000BAF1000F2FD0AA452FD2DDF810B0524658
:104290005946304601F0ECFF0BEB0A03A5EB0A0888
:1042A00004930696DDF81CA0BAF1000F0BD0D045A0
:1042B00032D9059E52463146002001F0D9FF5644BE
:1042C0000023059607934FF48053C9F81830D4F8AB
:1042D000EC317F1B1D44C4F8EC519CE7C3F1800313
:1042E0000693079292E7A846DCE7A8460DF1180B63
:1042F00004AB424653F806A001935146002001F05A
:10430000B7FF019B0AEB08029A51DBF80030A3EBE0
:104310000803CBF80030D6E70DF11C0B0426E7E7C5
:10432000002384F86A3184F8693109B0BDE8F08F60
:10433000F40B002024000020300B00200004004873
:104340002DE9F043AC4C2DED048BD4F8F02192F81C
:1043500049304C2B8BB0264600F0E48277D8372BBF
:1043600000F0348350D8292B00F0CA8220D8252BA6
:1043700000F0B082272B00F0B582232B5BD100F038
:104380008FFB1328054610D89C4E346800F088FB3C
:104390009B4900230C2707FB031292F808E086458F
:1043A00000F0568301331C2BF5D102F0E9F8D8E078
:1043B000332B00F0C582352B00F0A6812D2B3AD18E
:1043C00000F06EFB8F4D85F83E0100F073FBA5F801
:1043D000480100F06FFBA5F8440100F06BFBA5F865
:1043E000460100F05DFBD4F8F03185F83F015B79C0
:1043F000082B40F3B68000F05DFBA5F84A0100F001
:1044000059FBA5F84C01ACE0412B00F09F820BD882
:104410003C2B00F0E7803E2B00F0DA80392B0AD1EC
:1044200000F03EFB774C08E2442B00F0098304D8EF
:10443000432B00F0A982002077E0482B00F02E8269
:104440004A2BF8D100F036FB6E4B988189E0D22BD5
:1044500070D041D8CC2B00F07E812CD8C82B00F036
:104460008480CA2B00F0D6804E2BE4D155790323EB
:10447000B5FBF3F5122D98D8634C002640F6CA0917
:1044800040F2EE281927AE4204F1020469D200F08E
:1044900007FB04F8020C00F00DFB4845A8BF484696
:1044A0004045B8BF4046A0F2EE20013690FBF7F041
:1044B00004F8010CE7E7CE2B00F0E581C0F0D981CC
:1044C000CF2B00F08481D02BB5D194F8F43158076C
:1044D00047D404F0EFFE3BE0D92B00F0BD810FD8AC
:1044E000D42B3ED039D3D62BA5D1002504F5FD74AD
:1044F00000F0E0FA24F815000135082DF8D130E07D
:10450000EF2B59D006D8DA2B95D100F0D3FA3F4BD8
:10451000588226E0F22B24D0FA2B8CD194F8F43177
:104520005B0715D502F02CF801200BB0BDEC048B15
:10453000BDE8F08394F8F43113F0040411D100F0D5
:10454000AFFA304B0228D4BF83F8280583F82845FA
:1045500007F09AF804F072FD03E000F0ABFAA4F85B
:10456000F601002000F0EAFADEE754796408122C24
:104570003FF61BAF002501AFA5420DD324492246CB
:10458000002301A89C420DDC214B0021122A0FD1EF
:10459000012386F8F831E4E700F08CFA27F81500DB
:1045A0000135E9E730F8135021F813500133E9E7FA
:1045B00023F812100132E9E7104C256800F07AFA6E
:1045C000A5F85E00246800F075FAA4F85C00C8E75E
:1045D00000F066FA0B4C84F88E0100F061FA84F862
:1045E0008D01BEE7054C256800F05AFA2870236853
:1045F000187803F071FAB4E7F40B0020041C0020D3
:104600009C1D0108E80E0020361000202400002028
:10461000AC0C0020D34C23681B78022B4FF0000514
:104620005FD19FEDD19ADFEDD18AB2EE048A266880
:1046300000F036FA07EE900AB8EE677A06EB8506C8
:10464000C7EE087AC6ED097A266800F029FA07EE67
:10465000900AB8EE677A06EB8506C7EE097AC6EDD2
:104660000C7A266800F01CFA07EE900AB8EE677A1A
:1046700006EB8506C7EE287A0135032DC6ED0F7AC5
:10468000D5D1072D26681DD100F00AFA07EE900A51
:10469000B8EE677AC7EE087AC6ED127A266800F09F
:1046A000FFF907EE900AB8EE677AC7EE087AC6ED12
:1046B000137A266800F0F4F986F8500001350B2DC6
:1046C000DFD14EE700F0ECF92E447070266800F060
:1046D000E7F92E443073266800F0E2F92E44F075B5
:1046E000ECE7266800F0DCF92E447070266800F0D4
:1046F000D7F92E443073266800F0D2F92E440135E4
:104700000B2DF075EDD12CE700F0CAF90B2804460B
:104710003FF64BAE934B1D6800F0C2F903283FF6FD
:1047200044AE062303FB045484F8D20000F0B8F929
:1047300084F8CD0000F0B4F984F8CE0000F0B0F9B0
:1047400084F8CF0000F0ACF984F8D00000F0A8F9AC
:1047500084F8D10005E75379092B7FF726AE844D05
:104760002E6800F09DF930702E6800F099F9707095
:1047700000F096F92B686428A8BF6420187100F037
:104780008FF92B686428A8BF6420587100F088F95D
:104790002B68987100F084F92E68642828BF642083
:1047A000F07100F07DF9B0702E6800F079F9F070CA
:1047B0002E6800F07FF9D4F8F03170815B790A2B14
:1047C0007FF7CFAE2C6800F06BF92072C9E600F0DD
:1047D00071F96FF4AF6403199BB2664CC62B98BF96
:1047E000A4F8440100F066F9A4F8D00000F062F9E2
:1047F000A4F8D20000F05EF9A4F8D40000F05AF951
:10480000A4F8860100F04CF900F04AF900F048F9EC
:1048100000F046F984F8330100F042F984F84001D1
:1048200000F03EF94F4B1D6800F044F900EB8000AA
:104830004000A5F85A0000F033F984F8280100F090
:104840002FF984F82C0100F02BF984F82B0100F0EB
:1048500027F984F82D0184E694F81232002B7FF4B6
:1048600080AE00F027F9444B84F8130201221A7439
:1048700077E694F8F43159073FF573AE4FF4C873F7
:10488000A4F814326DE694F8F4315A073FF569AE96
:104890003A4A137843F00403137062E6384D4FF43C
:1048A000805645F20820FFF7C3F82E85062001F058
:1048B00013FD344BAE6101221A70C7202E8501F022
:1048C0000BFD0023AE6184F86A3184F86931C4F8C5
:1048D000EC3146E6274B00229A6000F0F5F806F02E
:1048E000CBFE3EE600F0E6F8224CA4F8E80000F02B
:1048F000E1F8A4F8EA0000F0DDF8A4F8EC0030E6F6
:1049000000F0D8F81B4CA4F82E0100F0D3F8A4F85E
:10491000300100F0C5F884F8320100F0CBF8A4F8BB
:1049200034011EE600F0BCF8124C84F8840100F05B
:10493000B7F884F8850100F0BDF8A4F8860110E608
:1049400000F0AEF80B4B83F840010AE6094D002455
:1049500000F0A6F863190134082C83F83601F7D16A
:10496000FFE500BF041C00200000C84200007A449C
:10497000F01B0020E80E002024000020F514002089
:1049800000040048300B00203D4C00F089F8002363
:10499000A36000F099F806F06FFE00F081F884F84B
:1049A0003E0100F087F8A4F8E80000F083F8A4F8CE
:1049B000EA0000F07FF8A4F8EC0000F07BF8A4F81F
:1049C0002E0100F077F8A4F83001CAE553790724E6
:1049D000B3FBF4F4C4EBC4029B1A13F0FF0F7FF493
:1049E000E4ACE4B2013CE4B2FF2C3FF4BAAD00F019
:1049F00057F8D6F8185240B20023042B3FF4D5AC38
:104A00005A1C05EBC20111F9061C814216D1DB00CC
:104A10009A1CD5423FF4C9AC1D44A87000F04AF876
:104A2000A88000F03DF8A87100F03AF8E87100F0B5
:104A300037F8687200F034F82872D3E71346DCE7E1
:104A4000104B4FF400421A85012384F81C3288E58C
:104A50002DB204EB8504137884F87D3000F020F843
:104A600084F87E0000F01CF884F87F0000F018F84D
:104A7000316884F8800001F17D0001F01FFD70E5D0
:104A8000E80E002000080048044A536823B192F958
:104A90000020824200D11847704700BF140E00204A
:104AA000034B1B68DA79511CD9711344187A70478B
:104AB000E40D002010B5FFF7F3FF84B2FFF7F0FF1D
:104AC00004EB002080B210BD10B5FFF7F3FF0446E1
:104AD000FFF7F0FF04EB004010BD074B10B5044694
:104AE0009868036821461B689847044B1B689A79AD
:104AF00054409C7110BD00BF140E0020E40D002036
:104B000038B5044624200D46FFF7E7FF4D20FFF798
:104B1000E4FF002C084C14BF21203E20FFF7DDFFEE
:104B20002368002228469A71FFF7D7FF236893F87D
:104B30004900BDE83840D0E7E40D002001460020E0
:104B4000DEE710B50446C0B2FFF7C7FF200ABDE894
:104B50001040C2E710B5044680B2FFF7F2FF200C08
:104B6000BDE81040EDE72DE9F34188469DF824E0CB
:104B7000184E11461A469DF8203005460C24002098
:104B8000042807460AD0013004FB006C1CF90CCC49
:104B9000AC45F5D104FB0764208908B1002002E090
:104BA00025B1012D11D002B0BDE8F0810A48CDF841
:104BB00000E003F04FFF0028F5D00C2303FB07664D
:104BC0000571A6F808807060EDE7CDF800E00348B5
:104BD000EFE700BF6C0A00200038014000440040AD
:104BE00070B50E490E4A0B7B12680025032B05DDBC
:104BF00005B10B73002070BD2346F7E702EBC30637
:104C00005C1CB6883042E4B24FF00105F4D00C735E
:104C10000820022110FB0310104470BD140E002068
:104C20000C0E0020014B00221A73D9E7140E00204D
:104C30002DE9F0411D4D00240A274FF47A76827841
:104C40001FFA82FEA4EB0E031BB2002B2ADDC2F179
:104C50006402D2B290F8038003FB03FC08FB0CFC57
:104C6000C8F164080EEB8E0E12FB02F29CFBF2F20E
:104C70004244534393FBF7F303EB4E031BB26B80A9
:104C80000A88B1F802E00A34AEEB020EA4B203FBCC
:104C90000EF3782C93FBF6F3134425F8023FCED1A4
:104CA000BDE8F08108BF0122D4E700BF200E00203C
:104CB00030B50C4C002340F6C415072B10D003FB75
:104CC00003F2A2F1190142784A4302F6C4120178B4
:104CD0005A434A4392FBF5F224F813200133ECE7E0
:104CE00030BD00BF3A0E00200430104B10B533F930
:104CF00010200C7840F633039A42A8BF1A46B2F54A
:104D0000617F4FF0190340F28330B8BF4FF46172F6
:104D100013FB0404944207DA497813FB0100904224
:104D2000B4BF0020012010BD002010BD7814002069
:104D3000034B002283F834209A639A871A647047E1
:104D4000140E002070B408B970BCF1E70E4A0023BD
:104D50000C25114605FB03F4A65C864209D10B4BDA
:104D6000186C50B1224455784278954205DB70BCEE
:104D700070470133102BEDD1F9E70022214419646B
:104D80009A879A63F3E700BFEC1E0108140E002017
:104D900040000C4A142870B4A8BF1420002302F16C
:104DA0004401022614255E540233CC18984204F8BC
:104DB000015CF8DC1344FF2283F844200F2070BC10
:104DC000C0E700BF140E002010B50A490A480A685F
:104DD000846800BF0B689A42F9D1084BD96D4FF433
:104DE0007A7000FB01F31B1BB3FBF1F300FB0230F5
:104DF00010BD00BFD01C002010E000E0140E002009
:104E000038B5044604B938BDFFF7DEFF0546FFF7A5
:104E1000DBFF401BB0F57A7FF9D3013CF2E72DE9C7
:104E200087482D4C06460B27013FFCD04FF01E0B48
:104E300005254FF0020806F0400906F0200A00E0C0
:104E40000025B9F1000F04D0A38A9BB283F48043FC
:104E5000A382BAF1000F04D0A38A9BB283F400436B
:104E6000A38216F002021FBFA38A9BB283F40053F1
:104E7000A38258460192FFF7C3FF019AB9F1000FD0
:104E800004D0A38A9BB283F48043A382BAF1000FBB
:104E900004D0A38A9BB283F40043A38222B1A38AE5
:104EA0009BB283F40053A3825846FFF7A9FF7DB15C
:104EB000013DC6D14FF4FA70FFF7A2FF4FF0960BF9
:104EC000B8F1000FBCD14FF47A70FFF799FFABE750
:104ED00008F1FF38F4E700BF00080048024A1368F1
:104EE00001331360704700BFD01C00200920CBE5C0
:104EF0002820C9E506EE901AB8EEE66ADFED106AE2
:104F0000104B9FED117AB3F8603026EE266AF7EE6B
:104F1000005AC5EE866A07EE903AF8EE677A67EEB9
:104F2000877A90ED007A76EEA76A30EE470A87EE30
:104F3000A66AA6EE007AB0EE470A80ED007A7047C6
:104F4000DB0FC940140E0020BD3786352DE9F74F21
:104F5000244D254E254F002495F86280E0B240454F
:104F60000ADA56F820302BB10B2803DCDB6837F85F
:104F7000101098470134EFE71D4B1B685B032DD5DC
:104F80000025194FDFF86CB029464FF0500A4FF05A
:104F900028092A46EEB2B04520DD57F826305C6875
:104FA0008C4214D02046019203F002FDEFF31283ED
:104FB0008AF31288616A09FB00B0013141626169BC
:104FC00041F001016161DBB283F31188019A57F866
:104FD00026301B6801351A602146DBE703B0BDE8C7
:104FE000F08F00BF140E0020000B0020320A0020BA
:104FF00074140020E01C00202DE9F04FF34BF44C1A
:10500000D3F80090D4F864A0F24DDFF80C84F24F8E
:10501000F24E2DED0A8BD14583B0B0EE40BADFEDF4
:10502000F08ADFEDF09A9FEDF09A9FEDF0AA00F084
:105030001583EF4BC4F864901A780193DFF8DCB362
:10504000002A4ED1BBF90230D5ED085AD5ED060A3B
:1050500007EE903ABBF9043000EE103AB8EEC07A91
:10506000F8EEE77A95ED070ABBF9003065EE876A3E
:10507000B7EE006AE7EE806A20EE470AA0EEE06A2B
:10508000A7EEA50A60EEE60A06EE903AF8EEE66AAA
:10509000B1EE400AE6EE260A0BF0C8F8DFEDD57A4D
:1050A000B4EEE70AF1EE10FAB0EE401A00F1B28267
:1050B000DFEDD17AB4EE670AF1EE10FAC8BFB0EEB8
:1050C000671ACE4AD2ED010A92ED000A02F0A2FC64
:1050D000019BC8ED008A0122C8ED018AC8ED028A51
:1050E0001A70BBF90030D5ED01AAD5ED006A07EEC4
:1050F000103ABBF9023008EE103AB8EEC88AB8EEA2
:10510000C77ABBF9043068EE2AAA07EE903AE7EEB8
:1051100026AAF8EEE77AD5ED026AE7EEA6AAD5ED63
:10512000046AC4ED1AAA28EE268AD5ED036AA7EE12
:10513000268A95ED057AA7EE878A28EE08CA84EDBF
:105140001B8AB0EE4C0AAAEEAA0A0BF0EDF8CAEEE2
:1051500080BAB0EE4C0AABEEAB0A0BF0E5F8DFED2F
:10516000A87AB0EEEB7AB4EE677AF1EE10FA09DCC9
:10517000C8EE00AAB0EEEA7AB4EE677AF1EE10FA61
:1051800040F36982DFED96AA97ED010A97ED007A68
:10519000D7ED027AD5ED08BA20EE000AA7EE070A8D
:1051A000A7EEA70A0BF0C0F8D5ED097AF4EEE97A7C
:1051B000F1EE10FAB4EEC90A48BFC5ED099AF1EE56
:1051C00010FAB0EE40CA00F12882DFED957AB4EE15
:1051D000E70AF1EE10FA00F32382C0EE097A6BEED3
:1051E000AABA95ED098A94ED1D0A6BEEA77A20EE16
:1051F000000A27EE888AD4ED1C7AA7EEA70A0BF0E6
:1052000093F8F1EE007AB4EEE70AF1EE10FA9DBFE2
:10521000F1EE027A77EEC07A9FED7A0ADFED7A7AC4
:10522000336898BF67EE807AD90768EE277A58BF4F
:10523000B2EE007AC8ED027A58BF67EE877AA9EB22
:105240000A0358BFC8ED027A07EE903A9FED6F7AD5
:10525000F8EE677A67EE877AB0EE007AF4EEC77AF6
:10526000F1EE10FA05D5B4EECACAF1EE10FA00F16B
:105270000A82D4ED1F7AB4F88030F0EEEAAA7AEE12
:10528000A7AA0133C4ED1FAAA4F88030604AD5ED67
:1052900001BAB2F90030D5ED006AD5ED04AA5B423F
:1052A00007EE903AB2F902305B4208EE103AB8EEDF
:1052B000C88AB2F90430B8EEE77A68EE2BBA5B42DE
:1052C00007EE903AE6EE87BAF8EEE77AD5ED026A95
:1052D00068EE2AAAE6EEA7BAD5ED036AC4ED1CBAB9
:1052E000E7EE26AAD5ED056AE7EEA6AAD5ED076A90
:1052F000C4ED1DAA28EE268AD5ED066AA7EE268AF9
:1053000095ED087AA7EE878AD4ED217A84ED1E8A7E
:105310003BEE27BADFED3F7A84ED21BA6AEEA7AA09
:105320006BEEA7BA6AEEAACA28EE278AB0EE6C0A1C
:10533000ABEEAB0AA8EE080A0AF0F6FF8BEE80CAC5
:10534000B0EE6C0AACEE0C0AA8EE080A0AF0ECFF0C
:10535000CAEE80BA2BEEAB0AACEE0C0AA8EE080A35
:105360000AF0E2FF88EE000AB0EE4C8AA0EE288A2E
:10537000B0EE6B7A90EE687AD5ED037AD5ED006ADF
:10538000D5ED04AA97ED010A68EE277A68EEEBBA2C
:10539000E7EE267AECEE28BAD5ED066AEBEEA67AB1
:1053A00068EE2AAAC4ED227AB0EE67CAD5ED017A7A
:1053B000E7EE27AAD5ED077AEBEEA7AAD5ED057A99
:1053C000C4ED23AA28EE278A2CE000BFE0140020B9
:1053D000140E002038000020C014002034160020D5
:1053E00000000000CDCC4C3DF3665F3FC2B8B23E3A
:1053F000FC1400209A9949C09A994940CC14002085
:10540000FFFF7F7FCDCC4C3ECDCCCC3DBD3786352C
:105410003C17002000008039B4140020E414002060
:1054200058A00B41D5ED027AA7EE278A20EE000A9C
:1054300097ED007AD5ED087AA7EE070AABEEA78ABA
:10544000D7ED027A84ED248AA7EEA70A0AF06CFF52
:10545000D5ED0A7AF4EEE97AF1EE10FAB4EEC90A63
:1054600048BFC5ED0A9AF1EE10FA00F1DC805FED5D
:10547000147AB4EEE70AF1EE10FA00F3D78080EE6A
:10548000097A864B95ED0A6A2CEE077AB4EEC90AC2
:1054900067EE066AF1EE10FAC3ED006A00F1C9800A
:1054A000DFED7F7AB4EEE70AF1EE10FA00F3C48084
:1054B00080EE097A2AEE877AB4EEC90A27EE067AD8
:1054C000F1EE10FA83ED017A00F1B980DFED747A24
:1054D000B4EEE70AF1EE10FA00F3B480C0EE097AF8
:1054E0003268D20768EE277A67EE867AC3ED027AD1
:1054F0000DD4B2EE006A66EE866A27EE067A67EE93
:10550000867AC3ED006A83ED017AC3ED027AB4EEC8
:10551000CA0AF1EE10FA1FD59FED627AD4ED256A22
:105520006CEE077A6AEE87AAEBEE276AD4ED267A4C
:10553000C4ED256AEBEE2A7A28EE078AC4ED267AB6
:10554000D4ED277AEBEE087AC4ED277AD4ED287AE9
:1055500037EE8BBA84ED28BAD4ED287AB1EE047A0E
:10556000F4EEC77AF1EE10FA4DDB4F4B94ED256A5D
:1055700093ED007A67EE877AB1EE677AB4EEC76A88
:10558000F1EE10FA61D4F4EE467AF1EE10FA48BF6B
:10559000B0EE676AD4ED266AB4EEE67AF1EE10FA60
:1055A00056DCF4EE667AF1EE10FA48BFF0EE676A68
:1055B000D4ED275AB4EEE57AF1EE10FA08DCF4EEF9
:1055C000E57AF1EE10FA54BFB0EE657AB0EE677A84
:1055D000364BC4ED258AD3ED007AC4ED268A37EE2A
:1055E000866AD3ED017A83ED006A77EEA66AD3ED81
:1055F000027AC3ED016A37EE877AC4ED278A83ED1C
:10560000027AC4ED288AC4ED218A03B0BDEC0A8B6E
:10561000BDE8F08FB0EE671A53E5F7EE007ADEE5ED
:10562000F2EE047ADBE5B7EE007A2AE7B2EE047A0E
:1056300027E7B7EE007A3DE7B2EE047A3AE7F7EEF5
:10564000007A4DE7F2EE047A4AE7B0EE476AA1E746
:10565000F0EE476AACE7DBEEA8AA95E59FED147A79
:10566000D8ED007A67EE877AC8ED007AD8ED017A36
:1056700067EE877AC8ED017AD8ED027A67EE877A0D
:10568000C8ED027A02E69FED0B7A6BEE87BA94EDD5
:10569000277AA7EEAB7A84ED277AEAE5A8140020F2
:1056A00058A00B41728A0E3CD80E00209C1400209A
:1056B000EC51783F0AD7233C10B52F4CD4ED013A7A
:1056C00094ED046A94ED003A94ED037A94ED024A65
:1056D000D4ED056A63EE867AF6EE005AE3EE077AB9
:1056E0008AB02146B0EE635AE4EE267A07A8F0EEBF
:1056F000444A67EEA57AF0EE435AA6EE675AE6EE04
:10570000E74AA3EEE76AE4EE676AE7EE675ACDED93
:10571000066AA3EE677AF0EE667A66EE646A8DED4D
:10572000047AE5EE276A67EEE57ACDED075AE4EEF6
:10573000877A27EE457A8DED085AA5EE867ACDED6B
:10574000094A8DED056ACDED016ACDED027A8DED48
:10575000037A02F09BF858B104F10C0104A802F09E
:1057600095F828B104F1180101A802F08FF808B9E2
:1057700000F024FF0AB010BD3800002037B5044601
:10578000154605292CD8DFE801F0030717191B1B64
:10579000436B2B60002021E00DF10602442101F053
:1057A0002BF8D8B9BDF8062053029AB12B60A36339
:1057B000012384F8293011E0C36BEAE7036CE8E7C2
:1057C0000DF10602642101F017F838B9BDF8063072
:1057D0005B02DEE7A36B2B6084F8290003B030BDC9
:1057E0006FF00300FAE72DE9F04F9FB090F83031E9
:1057F0000C91C02201210446059301F052F80546A0
:10580000002840F0E982207401228021204601F026
:1058100048F80122FF21204601F043F82A46294694
:10582000204601F03EF894F83A219121204601F0FB
:1058300038F829460122204601F033F82A46FF2194
:10584000204601F02EF82A468021204601F029F852
:1058500029460122204601F024F801238DF85C300E
:105860000546002840F0B882074644F620689DF8B7
:105870005C30DB0707F101070ED5002D40F00E83E9
:10588000474502D16FF00605A6E2294617AA204631
:1058900000F0C8FF0546EAE74745F3D0002D40F089
:1058A0009B82204605F0ABFA0546002840F0948222
:1058B000032384F832310C2214AB142194F85C01D8
:1058C00004F0A0FE002800F0C1829DF85A209DF847
:1058D0005B30B4F8520194F8311103EB02231FFA44
:1058E00083FB9DF856209DF8573003EB02239BB2B3
:1058F0005B029DF8582000939DF8593003EB02237A
:105900009BB25B029DF8522006939DF8533003EB47
:1059100002239DF850209BB2B0F57A7F02934FEAA4
:10592000E2020ED0257F0BFB00F04FF47A7300F5F6
:10593000FA7090FBF3F0236A002D40F094801FFA78
:1059400080FB002900F099804FEA8B13DBB20993AA
:105950000023ADF84630D3B2049303F00F03019354
:105960004FEA9B0B019A4FF2A103D34003F00103CE
:105970000B9394F828300393002B00F0AC81257F23
:10598000236A25B1029A03FB02F580352D0A94F8AB
:10599000E020009BD4F8DC7008922B4411464FF4B1
:1059A0007A78384608FB03FA0A9300F0C9FBD4F86A
:1059B000E43094F8E81007938146184600F0C0FBE5
:1059C000089A0A9B0AF5004A082A4FEA1A4603F188
:1059D00080020CBF02210321C04B002E63D1C4F80A
:1059E00040311F4612AA00212046FFF7C7FE129B36
:1059F000B6B2002B00F06D81BB422CBF00270127FF
:105A0000002840F0108294F82A90B9F1000F00F0BD
:105A1000718113AA02212046FFF7B0FE88B9012246
:105A2000FF21204600F03DFF58B90DF14602B62196
:105A3000204600F0E1FE20B90246FF21204600F09A
:105A400030FFBDF846506B02139DC4F848311DB1BC
:105A5000AB4294BF00250125002800F04C814FF097
:105A60000008C24665E1029D9BB26B43009D1B127C
:105A70009D420CD1A1B948F6E02BD2B2002304928A
:105A800002F00F02ADF84630019209936AE7009DDB
:105A900080B26843EB1AB0FBF3F31FFA83FB50E7C5
:105AA00042F2B82B50E781444FEAC92901FB09F1C2
:105AB00040F277604FEA122E01F5FA71B1FBF8F16E
:105AC000414301F5FA710F93B1FBF8F3089303FB1F
:105AD0000EFE069BDFF818920E9108FB03F000EA19
:105AE00009000EF1800EB0FBF6F67D480D925FEADC
:105AF0001E2E08BF4FF0010E864228BF06464FF407
:105B0000167000FB06F30C2000FB0EF00A9305F064
